:020000040800F2
:100000009099002491040008434B0008F145000832
:10001000414B00081D14000827590008000000008B
:100020000000000000000000000000009D03000828
:100030001F14000800000000F9030008ED4D00083F
:10004000AB040008AB040008AB040008AB040008D4
:10005000AB040008AB040008AB040008AB040008C4
:10006000AB040008AB040008AB040008AB040008B4
:10007000AB040008AB040008AB040008AB040008A4
:10008000AB040008AB040008AB040008AB04000894
:10009000AB040008AB040008AB040008AB04000884
:1000A000AB040008AB040008AB040008AB04000874
:1000B000B94F0008AB040008AB040008AB0400080B
:1000C000AB040008AB040008AB040008AB04000854
:1000D000AB040008AB040008AB040008AB04000844
:1000E000AB040008AB04000800000000AB040008EB
:1000F000AB040008AB040008AB040008AB04000824
:10010000AB040008AB040008AB040008AB04000813
:10011000AB040008AB040008AB040008AB04000803
:10012000AB040008AB040008AB040008AB040008F3
:10013000AB04000821140008AB040008AB0400085D
:1001400000000000000000000000000000000000AF
:10015000AB040008AB040008AB040008AB040008C3
:10016000AB040008AB040008AB040008AB040008B3
:10017000AB040008AB040008AB040008000000005A
:10018000AB040008AB040008AB040008AB04000893
:10019000AB040008AB040008AB040008AB04000883
:1001A000AB040008AB040008AB040008AB04000873
:1001B000AB040008AB040008AB040008AB04000863
:1001C000AB040008AB040008AB040008AB04000853
:1001D000AB040008AB040008AB040008AB04000843
:1001E000AB040008AB040008AB040008AB04000833
:1001F000AB040008AB040008AB040008AB04000823
:10020000AB040008AB040008AB040008AB04000812
:10021000AB040008AB040008AB040008AB04000802
:10022000AB040008AB040008AB04000800000000A9
:10023000AB040008AB04000800000000AB04000899
:10024000AB040008AB040008AB040008AB040008D2
:10025000AB040008AB040008AB040008AB040008C2
:10026000AB040008AB040008AB040008AB040008B2
:10027000AB040008AB040008AB0400080000000059
:10028000AB040008AB040008AB0400080000000049
:1002900000000000AB04000800F002F800F06EF867
:1002A0000AA090E8000C82448344AAF10107DA45D1
:1002B00001D100F063F8AFF2090EBAE80F0013F0B5
:1002C000010F18BFFB1A43F001031847044F010048
:1002D000244F01000A444FF0000C10F8013B13F0CA
:1002E000070408BF10F8014B1D1108BF10F8015B8F
:1002F000641E05D010F8016B641E01F8016BF9D182
:1003000013F0080F1EBF10F8014BAD1C0C1B09D1D8
:100310006D1E58BF01F801CBFAD505E014F8016B4A
:1003200001F8016B6D1EF9D59142D6D370470000DC
:100330000023002400250026103A28BF78C1FBD8EE
:10034000520728BF30C148BF0B607047642900F0D6
:10035000A181732900F06983002070471FB514F054
:1003600095FD9DE8030000F055FE00F0E4F900F073
:1003700093FB1FBD10B500F0F8FB10BD00F028FC8A
:100380001146FFF7EBFF08F04DFE00F017FE03B437
:10039000FFF7F0FF03BC00F0B7FF00002C4B19681B
:1003A0000868B0E8F04F80F30988BFF36F8F4FF013
:1003B000000080F3118870470000000008480068C2
:1003C000006880F308884FF0000080F3148862B65C
:1003D00061B6BFF34F8FBFF36F8F00DF00BF00BF69
:1003E00008ED00E0DFF80C00016841F470010160E5
:1003F000704700BF88ED00E0EFF30980BFF36F8F17
:10040000134B1A681EF0100F08BF20ED108A20E968
:10041000F04F106009B44FF0500080F31188BFF323
:100420004F8FBFF36F8F13F07DFE4FF0000080F30E
:10043000118809BC19680868B0E8F04F1EF0100F69
:1004400008BFB0EC108A80F30988BFF36F8F704744
:100450004C000024EFF30580704700000B49D1F8F1
:1004600000C04A685CF8043B1068184442F8040B6A
:100470008C4528BFA1F1DC0C8A4228BFA1F1DC0227
:10048000C1F800C04A6020F0004070472C7A002478
:100490000948804709480047FEE7FEE7FEE7FEE718
:1004A000FEE7FEE7FEE7FEE7FEE7FEE70448054954
:1004B000054A064B70470000D54E00089902000817
:1004C000907B002490990024908300249083002442
:1004D00053EA020C00F069802DE9F04B4FF0000662
:1004E000002B1FBFB3FA83F503FA05F424FA05F6CF
:1004F0005E4012BF1643B2FA82F502FA05F4C5F166
:1005000020051EBF22FA05FC44EA0C04203556EAF9
:10051000044C4FEA144418BF641C4FF000084FF01D
:100520000009904271EB030C39D3002919BFB1FACD
:1005300081F701FA07F6B0FA80F700FA07F6C7F17B
:1005400020071EBF20FA07FC46EA0C062037B6FB40
:10055000F4FCA7EB0507103F07F01F0BCBF12006BB
:100560000CFA0BFB2CFA06F644BFB3460026202FEC
:10057000A4BF5E464FF0000B5BEA060C08BF4FF0CD
:10058000010B19EB0B09ABFB027C48EB0608C01B07
:1005900006FB02CC0BFB03CC71EB0C01C1E70B4655
:1005A000024641464846BDE8F08B13B54FF00000C7
:1005B0004FF00001AFF30080BDE81C407047000021
:1005C0000FB4044910B503AA029800F033FA10BC26
:1005D0005DF814FB887A00242DE9F0410E460446AC
:1005E000002020622046E168884730B3252805D0E6
:1005F000D4E901219047206A401CF2E7E1682046D7
:1006000000278847050018D0A5F14100192802D815
:1006100020354FF400673246294620462760FFF711
:1006200095FE40B1012804D0F61D26F007060836D5
:10063000D8E7361DD6E72846DAE7206ABDE8F0811C
:1006400070B50C460546012A05D02878800600D5ED
:10065000EA69002302E0012305E05B1C934202D219
:10066000E05C0028F9D1A869E618C01AA861286AD8
:10067000184428622846AFF3008004E0D5E9012140
:1006800014F8010B9047B442F8D32846AFF300802A
:1006900070BD00002DE9F041064600241068752960
:1006A000314616A510D0AFF30080002802DA404290
:1006B00013A507E031688A0701D512A502E04907B2
:1006C00004D511A5012401E0AFF3008000210A2226
:1006D00006F1240709E0B0FBF2FCB0FBF2F302FBE9
:1006E0001C00303078541846491C0028F3D12346AA
:1006F0002A463046BDE8F04100F02CB90000000069
:100700002D0000002B000000200000000B4910B558
:10071000A1F17C020A4CC2E93712372106E000EB56
:10072000104342F82130074B00FB03400B1EA1F1A0
:100730000101F4DC10BD0120E8E70000CC790024C1
:10074000E119D666CD0D010040EA010310B59B0703
:100750000FD1042A0DD310C808C9121F9C42F8D02B
:1007600020BA19BA884201D9012010BD4FF0FF30DC
:1007700010BD1AB1D30703D0521C07E0002010BDF2
:1007800010F8013B11F8014B1B1B07D110F8013B7E
:1007900011F8014B1B1B01D1921EF1D1184610BD5F
:1007A000032A40F2308010F0030C00F0158011F89D
:1007B000013BBCF1020F624498BF11F801CB00F875
:1007C000013B38BF11F8013BA2F1040298BF00F8C9
:1007D00001CB38BF00F8013B11F0030300F0258086
:1007E000083AC0F0088051F8043B083A51F804CBAD
:1007F000A0E80810F5E7121D5CBF51F8043B40F873
:10080000043BAFF30080D20724BF11F8013B11F87D
:1008100001CB48BF11F8012B24BF00F8013B00F8C1
:1008200001CB48BF00F8012B704710B5203AC0F04B
:100830000B80B1E81850203AA0E81850B1E81850E1
:10084000A0E81850BFF4F5AF5FEA027C24BFB1E81E
:100850001850A0E8185044BF18C918C0BDE810408F
:100860005FEA827C24BF51F8043B40F8043B08BF98
:100870007047D20728BF31F8023B48BF11F8012B5F
:1008800028BF20F8023B48BF00F8012B70474FF00B
:10089000000200B5134694469646203922BFA0E8D0
:1008A0000C50A0E80C50B1F12001BFF4F7AF0907DC
:1008B00028BFA0E80C5048BF0CC05DF804EB8900CD
:1008C00028BF40F8042B08BF704748BF20F8022B10
:1008D00011F0804F18BF00F8012B70474FF0013C1A
:1008E00050F8042B51F8043B9A4215D1A2EB0C03AB
:1008F000934313EACC130BD150F8042B51F8043B6B
:100900009A4209D1A2EB0C03934313EACC13E7D02C
:100910004FF00000704700BFD01A01BAB1FA81F160
:1009200001F0180122FA01F0CB40C1F12001DBB245
:10093000C0B2C01A2CFA01F3D11A914311EAC311C3
:10094000E6D1704770477047704700000048704715
:10095000307B00242DE9F0470D4699469246044627
:1009600000F124080168880604D5E06921F010012F
:10097000216000E00120A84201DD471B00E00027C4
:10098000A1697A1902EB0900081AA0612078C00653
:1009900002D42046AFF30080002608E0D4E901210C
:1009A0001AF806009047206A401C761C20624E45CB
:1009B000F4DB2078C0060AD52046AFF3008006E0BD
:1009C000D4E9012130209047206A401C2062381E63
:1009D000A7F10107F4DC07E0D4E9012118F80500CC
:1009E0009047206A401C2062281EA5F10105F3DC17
:1009F0002046AFF300802078000602D50220BDE833
:100A0000F0870120FBE710B5436913B1AFF3008015
:100A100001E0FFF715FE012010BD127800F124015E
:100A20000A7000224A700122EDE711684FF0FF3290
:100A3000E9E70000074B70B50D467B4400F015F860
:100A40000446284600F024F810B14FF0FF3070BD86
:100A5000204670BD9361000000487047307B002441
:100A600001694A1C02610878704700B58FB0CDE972
:100A700001310021059105497944CDE90310114662
:100A80006846FFF7A9FD0FB000BD0000E5FFFFFFBE
:100A9000007B00F08000704710B542485421FFF7FA
:100AA000F6FE41485421FFF7F2FE40485421FFF77B
:100AB000EEFE3F493B483C4A3F4B08603D490A60D7
:100AC0003A491960531C0365481C106501200865EC
:100AD0003B48344A39A1784400F0D4F920B9384869
:100AE00078440A3800F073FA37482F4A35A1784421
:100AF00000F0C8F920B9344878440A3800F067FAA1
:100B000032482A4A2FA1784400F0BCF920B92F4876
:100B100078440A3800F05BFA40232248DC000021C8
:100B2000224600F08CF920B125487844543800F072
:100B30004EFA1D4822464023002100F080F920B1E2
:100B400021487844543800F042FA184822461023CD
:100B5000002100F074F9002806D01C487844BDE854
:100B60001040563800F033BA10BD104870B5006D13
:100B700020F001040B4800F0FBF90B4800F0F8F9F5
:100B80000A4800F0F5F909E0206D20F00105204643
:100B900000F0EEF9204600F040F82C46002CF3D18E
:100BA00070BD0000347A0024887A0024DC7A0024A6
:100BB000780100247C0100248001002472000000E0
:100BC000AE450100770000009D4501008D45010004
:100BD0007546FFF741FFAE4605006946534620F0D3
:100BE0000700854618B020B5FFF760FCBDE820403F
:100BF0004FF000064FF000074FF000084FF0000BD9
:100C000021F00701AC46ACE8C009ACE8C009ACE88B
:100C1000C009ACE8C0098D46704770B50446051F91
:100C200000F0DCF90068002C14BF446870BD002C93
:100C300018BFAC423CBF20466468F8D301680A186C
:100C4000AA4218BF456003D12A68054611440160D5
:100C500028684119A1421CBF6C6070BD6168696061
:100C600021680844286070BD2DE9F04705460C4610
:100C7000C86820F4201040F48000C860800602D5C7
:100C8000084600F0F8FAE06841F282014FF0FF39BF
:100C90000140022903D0204600F096FAB5E000F4A6
:100CA0002041B1F5004F0FD1C00306D56168E06A5D
:100CB000884200D80846606006E02069E062606013
:100CC000606904F04EFEA061A0680022EEB2002828
:100CD0000DDAE1688B050AD4C043A06041F490307E
:100CE0002260E0606068411C61600670A5E0E06819
:100CF0009046226040F40050E060206968BB606963
:100D000004F035FE012704F12405A0B1A08910F4F8
:100D1000407F08D0E06900F0ACF9206118B1E068CC
:100D200040F4006016E0E7612561E06820F440705F
:100D300040F480600EE0E06900F09BF9002820613B
:100D4000F1D0E06840F4006010F4407FE06002D130
:100D500040F48070E06020696060E06825696FF0B1
:100D6000010AC1051FD56168E06A884200D80846BB
:100D7000411B04D02246284600F030FAF0BBE06860
:100D8000010203D5E562C4E9015854E0691CE1623F
:100D90006160E16940F48030491EC4E902103046C8
:100DA0002E70BDE8F087010202D500F480320AE01F
:100DB0006068411C61600670E0680A2E40F4803073
:100DC000E06006D00022E16A6068814203D90B46E8
:100DD00002E00122F7E70346A7895B1B7F0503D4E6
:100DE000E7699F4200DDE2B1814200D80146E56239
:100DF0000F1AC4E90158002B09DD00E005E0224686
:100E00001946284600F0EAF908B14846C9E747B153
:100E1000A069E5626560C01BA061E06840F0100059
:100E2000E060E068000208D56168A069E562491BDE
:100E300008446560A0615046B3E73046B1E770B53D
:100E4000C468A50713D0650211D4B2F5807F09D01C
:100E5000B2F5007F06D0B2F5806F08D1012300F112
:100E6000240106E05D1E6FF07F46B54201D30120EC
:100E700070BD0161C361416024F470611143C160C0
:100E8000002070BD2DE9F0410C460746164610467D
:100E900000F06EF82078611C61280AD0722802D018
:100EA00077283CD102E00125002405E00225042436
:100EB00002E0082448F2020511F8010B2B2806D0A5
:100EC000622809D011F8010C74280AD00BE045F013
:100ED000030544F00204EFE745F0040544F0010483
:100EE000EAE744F010043846214604F04DFD411C69
:100EF00015D00021316171604FF40071F560F1612E
:100F00007061200704D530460222002100F0E0F88D
:100F1000306D40F0010030653046BDE8F0810020C2
:100F2000FBE72DE9F0410D460646104C206DC10748
:100F300004D0410804D020F00104F7E722460EE077
:100F4000542000F096F807000ED0206D47F0010104
:100F50000843542120653846FFF799FC3A46294654
:100F60003046BDE8F0418DE70020D6E7347A002412
:100F70002DE9F04704464FF000094FF0FF37C568F0
:100F8000D4E90486A80707D0204600F051F930467E
:100F900004F0DBFC002802DA3846BDE8F0872805BB
:100FA00002D54046FFF739FE4C212046FFF76FFC83
:100FB000206D20F0010020654846EEE710B504469C
:100FC000AFF300802046BDE81040FFF7E0B910B550
:100FD00000F078F9BDE8104000F06EB900487047A5
:100FE000387B0024704770477047704738B5044617
:100FF0000A4600206946AFF30080002808BF38BDCC
:1010000002460099204600F08DF9012038BD0120EC
:1010100000F072B9F8B5AFF30080054600200C4629
:10102000102000BF0646A819A0420DD932466946D5
:101030000020AFF30080070008BF00F05DF90098C2
:10104000A04218BF0546C419FFF7C8FF0560074650
:10105000F01D20F007004619284600F05CF9B44264
:1010600008BFF8BDA21B31463868BDE8F84000F063
:1010700059B970B50646FFF7B1FF056806F10B00D8
:1010800020F00704B4429CBF002070BD2B466A6864
:10109000BAB11068A04210D304F1080188423CBFE5
:1010A0005068586007D35168101941601168091BD6
:1010B000016058601460101D70BD13465268002A0C
:1010C000E7D121462846FFF791FF0028DED170BD09
:1010D0002DE9F041044616460D464769007B80071E
:1010E0002ED0384604F043FC50BB3EB3012E02D054
:1010F000022E25D104E0204600F02EF905441DE023
:10110000384604F02EFCE168002841F01001E1604F
:1011100005DA204600F058F80120BDE8F081C90347
:101120000BD56268E16A914200D81146A269114468
:101130002269891A814200DD08460544002D01DA42
:101140000220EAE7E16A6068E268814206D2910320
:10115000E06203D522F4003141F01002A6690027B5
:10116000AE4213DCE16A814201D90B4600E003463E
:1011700003EB060C2369ACEB030CAC4506DD8142A6
:1011800001D98C4600E084469C4505D1A7602760C4
:1011900042F02000A5620DE0AD1BE669AE1B814266
:1011A000A66000D90846C01A281A20605819606045
:1011B00022F0200003490840E060002084F84870D5
:1011C000ABE70000BFCFD7FFC16821F4001141F0A9
:1011D0008001C16000218160016070472DE9F04706
:1011E000814614460E464FF0FF383248D56857699D
:1011F000054209D03846A16904F0F4FB002811DB50
:101200002C48C0430540E5602B46324649463846E7
:1012100004F0EDFBA16920F00042B21A114400284D
:10122000A16103D02046FFF7CFFF4046BDE8F0871D
:1012300070B504460569C06A6168884200D80846EE
:10124000E16821F42011E160C90312D5A84208D059
:101250002246411B2846FFF7C1FF10B14FF0FF3077
:1012600070BD0020E562C4E90150E06820F48030E0
:10127000E060002070BD10B50446C06820F020007A
:10128000E060A16AA06988420DD02046FFF7D0FF38
:10129000E06820F4405040F01000E060A06AA061D7
:1012A0002069E062606044F24001E0688843E060E9
:1012B00010BD000010000200002801D000F024B88A
:1012C0007047000010B5014602A000F066F801204A
:1012D00010BD000053494752545245443A205265CC
:1012E0006469726563743A2063616E2774206F705D
:1012F000656E3A200000000010B500F067F8BDE808
:101300001040FFF7D9BF000001491820ABBEFEE72F
:1013100026000200704700210160C0E901107047FB
:1013200010207047034640688C46002818BF88424A
:101330003CBF03464068F8D318681844884207D079
:101340000CF1030020F00700001D411A521A01465B
:10135000081D0A60FFF761BC10B50146C26890071E
:1013600003D0900607D5886A0AE0FFF7EFFA01215B
:101370000160881E10BD8B69486818440B69C01A4B
:1013800091F848301BB191F84910401A10BD110373
:10139000FCD50028FADD401E10BD70B505460C4690
:1013A0000A2000E06D1C04F040FB35B128780028CD
:1013B000F8D102E0641C04F038FB14B12078002856
:1013C000F8D1BDE870400A2004F02FBB10B5012809
:1013D00005D0002103A0FFF7E0FF012010BD09A107
:1013E000F8E7000053494752544D454D3A204F7598
:1013F00074206F662068656170206D656D6F72790D
:10140000000000003A2048656170206D656D6F72C4
:101410007920636F7272757074656400FEE77047BF
:10142000014800F002BD0000EC08002470B5A2B035
:10143000064600244FF4C36001258DF80F500223A7
:101440008DF81D4069038DF80E5009948DF81F40EA
:101450000D9020208DF804508DF8325042028DF806
:10146000605006914FF040518DF8384002948DF84D
:1014700061408DF81C408DF828408DF862408DF851
:101480000C400B948DF81E500F948DF8115012944F
:101490008DF840408DF831408DF8124014948DF84D
:1014A00056401790304616938DF8205005928DF8CF
:1014B00054408DF830408DF81050009169468DF8F9
:1014C0000D408DF8554011948DF84C5000F01CFAE9
:1014D0001B9568058DF871404FF406718DF86850C2
:1014E00019948DF880408DF870401F908DF87840E9
:1014F0001D9030468DF88140219119A900F0AAF97C
:1015000022B070BD0020704701F0EAB9024810B562
:1015100000F05EFF002010BDEC08002413460A46D0
:101520000146044810B500F00FFF002801D04FF02D
:10153000FF3010BDEC08002413460A46014604485B
:1015400010B501F077F8002801D04FF0FF3010BD42
:10155000EC0800242DE9F047836A00F11805924653
:101560008C6800271E4655F82320D2F80CC0BCF129
:10157000000F73DB91F800C05FEA4C7C43D5D2F8D2
:101580000CC0D1F824806FF30F0C4CEA080CC2F8A1
:101590000CC0D2F80CC04CF4803CC2F80CC0D0F89F
:1015A00000C0DCF8608048F48018CCF8608091F8C6
:1015B00000C05FEA0C7C26D5B1F82C80D2F808C0B8
:1015C00068F31F4CC2F808C0D2F80CC04CF4003CC1
:1015D000C2F80CC0D2F80CC0D1F830802CF4402CEA
:1015E0004CEA080CC2F80CC0D0F800C0DCF86480EB
:1015F00048F48018CCF864800068D0F850C04CF0F3
:10160000806CC0F850C00878C0060BD59068D1F83F
:1016100018C06FF30D0040EA0C009060D06840F0F5
:101620008060D060087810F0140F18D0D0685B1C70
:10163000042B40F08040D060D06840F00040D06083
:1016400000D31B1F012755F82320D068002806DA95
:1016500055F82600C16821F00041C16099E020687A
:1016600010609068D4F804C06FF30D0040EA0C00DD
:101670009060DFF8DCC17F1CA0684FF0000950B11A
:10168000044600685060D2F80880A08808EA0C0878
:1016900048EA004004E0C2F80490906800EA0C00B8
:1016A00090600878C006D06812D5B1F8208020F488
:1016B000F00040EAC840D060D068D1F81C806FF3D9
:1016C000110040EA0800D060D06840F480201BE0A0
:1016D000D1F804806FF30E0040EA0800D06008786B
:1016E000C00707D0D068D1F8148020F4403040EA19
:1016F0000800D0600878800607D5D068D1F810803F
:1017000020F0406040EA0800D0600878400707D524
:101710009068D1F8288020F4404040EA08009060AA
:10172000D06840F00050D060D06820F08040D06099
:10173000D06840F00040D0600878800774D5D06849
:10174000D1F80C8020F0607040EA08006BE0D068AF
:101750005B1C042B20F08050D06000D31B1F55F879
:101760002320D06820F00050D060D068002813DA21
:1017700055F8261000200AE0CA68761C042E22F0D4
:101780000042CA6000D3361F401C55F82610B842EC
:10179000F2D30220BDE8F087A4682068106090684A
:1017A000D4F804806FF30D0040EA08009060A06850
:1017B0007F1C50B1044600685060D2F80880A088B1
:1017C00008EA0C0848EA004004E0C2F80490906877
:1017D00000EA0C0090600878C006D0680AD5D1F8FD
:1017E0001C806FF3110040EA0800D060D06840F41C
:1017F000802010E0D1F804806FF30E0040EA08006A
:10180000D0600878C00707D0D068D1F8148020F4E1
:10181000403040EA0800D060D06840F00040D0601E
:10182000D06820F08040D060A06800288FD19068F8
:10183000BAF1000F02D040F0004001E020F000407B
:101840009060D06840F08050D06000202B61A1E70C
:10185000FFFF00C0F0B5026847F6020E274E4DF2BA
:10186000010702F58052264DD1F800C01368254CBF
:1018700023EA0E0343EA0C0313600B79026891F824
:101880000CE002F58052D1F808C01B0343EACE33C6
:1018900043EA0C03D2F804C02CEA070C4CEA030C10
:1018A000C2F804C002684F7B02F580520B6A43EA1B
:1018B0000747D2F8003133403B43C2F80031026899
:1018C0000B7D02F5805291F81DC00F69D2F80461BA
:1018D0001B0143EA0C332E403B431E43C2F8046114
:1018E00000680B7F00F580508A69D0F8081142EA41
:1018F000C37221401143C0F80811F0BD00C0FEFFC3
:10190000EFEFC0FFFFFFC07FF0B50B790C7B0F68D6
:101910008A68DB064D7B43EAC4533A438E7B1A4305
:10192000CF7B91F810C042EA855242EA4652BCF1A0
:10193000000F42EA07537CD000224C7C002C43EA83
:10194000C24278D000238E7C0D7F42EA43428F7FD3
:10195000D1E9053442EA06424E7F1A43224342EA65
:101960000532002F42EAC62466D00022CD7F91F8CE
:10197000203044EA8222002B42EA45227ED0002514
:1019800004684B6A42EA052291F82870464D1A43D2
:10199000CE6A236842EA071232432B401343236086
:1019A00091F83C2091F8383091F8305091F831405E
:1019B000520642EA036291F8326042EA854242EA04
:1019C0004444BEB300220368384E4F6B44EA0242DF
:1019D0005C683A4340F20F15344014435C6003687E
:1019E00091F840604C6CDA6844EA0624AA4322432A
:1019F000DA6091F854300A6D91F84C4042EA4302A3
:101A0000ECB300240368B1F848504FF60D76E701B7
:101A10001C6F47EA05452A43344014431C6702689B
:101A200091F8563091F8555052F8904F43EA4503DB
:101A300003E02BE032E02BE02CE024F003041C4315
:101A4000146002688C6DD2F8003D23F072032343CA
:101A5000C2F8003D91F86020CC6D1AB35FF000032E
:101A6000026891F8615091F8621044EA8310D2F84C
:101A7000303D2C0144EAC101084301E00CE00FE0D5
:101A800023F07B010143C2F8301DF0BD012254E771
:101A9000012358E7012269E7012571E7012292E756
:101AA0000124AFE70123DBE7838004000080F8C056
:101AB0007047000070B5044600F012FF0546601C38
:101AC00002D004480078044400F00AFF401BA04202
:101AD000FAD370BD3800002400F12C02F0B5D2E931
:101AE000054352F8241023B1D56905B15B1C0025CC
:101AF00022E00120F0BD0F694FF080760F60CE60CC
:101B00004E692EB14E698E60CE6846F00076CE608A
:101B1000CE6846F00046CE60166A1EB1CE6846F02A
:101B20008046CE605E1EB54205D2641C042C00D3F4
:101B3000241F52F824106D1C9D42DCD3046800233E
:101B400004F58054C4F82811936183641846F0BDED
:101B5000704710B500EB8104E46A0AB1042903D38D
:101B60000121C165084610BD2260E06840F0807028
:101B7000C4E903022BB1A360E068636140F0007028
:101B8000E060E06840F00040E060002010BD704779
:101B900000297DD00268126802F00C02CA62026855
:101BA0001268C2F3001281F828200268126802F05D
:101BB00060024A620268126842F30022521C81F8F5
:101BC000202002681268C2F34022CA7702681268B5
:101BD00042F38022521C8A7702681268C2F3C02244
:101BE0004A7702681268C2F300320A770268126804
:101BF00002F400528A610268126802F480424A616B
:101C000002681268C2F300428A740268126842F3E2
:101C10004042521C4A740268126842F3C042521C8D
:101C20000A7402681268C2F30052CA73026812682A
:101C3000C2F340528A7302681268C2F380524A7338
:101C400002681268C2F3C0520A730268126802F096
:101C5000E0628A6002681268C2F3C0620A710268B8
:101C6000126802F0E0420A6002685268C2F30D0294
:101C70004A630268526842F30042521C81F83220E3
:101C800002685268C2F3404281F83120026800E0E5
:101C900062E05268C2F3804281F8302002685268E4
:101CA000C2F3006281F8382002685268C2F34462CD
:101CB000CA630268D268C2F3002281F84020026839
:101CC000D26802F00F024A640268126FC2F3400247
:101CD00081F854200268126F42F3C012521C81F83E
:101CE0004C200268126F02F070020A650268126FDF
:101CF000120C8A640268D2F8902002F0010281F886
:101D000056200268D2F89020C2F3400281F8552094
:101D10000268D2F8002D02F072028A650268D2F8D9
:101D2000302D02F02302CA650268D2F8302DC2F3CA
:101D3000C00281F862200268D2F8302DC2F300128E
:101D400081F861200068D0F8300D40F38010401C0D
:101D500081F860000020704701207047F0B50C004A
:101D6000016C00F12C0605464FF0000756F82100E3
:101D700002D0B2691AB109E00120E86539E02846CD
:101D800000F0EEF9A0B3716956F82100002215E0C9
:101D9000036923606B696360436923B1A468436985
:101DA00023606B696360C068491C0429C0F30E0797
:101DB00000D3091FA468521C56F82100B3695B1EAA
:101DC0009342E5D8C168026922606A69C1F30E01D5
:101DD000C91B8A4201D3616008E0436943B1626074
:101DE000A268406910606869081A50600020F0BD60
:101DF000FFE70120FBE770B500F12C040D46D4E9A4
:101E0000056111B900F0ACF968B1A069761E3044E3
:101E1000042800D3001F54F82000C068C0F30E004F
:101E20002860002070BD012070BD70B504460068B8
:101E300000F58050D0F8601149060DD5D0F8340176
:101E4000400609D5204600F0B1FA206848F240016A
:101E500000F58050C0F86011206800F58050D0F87F
:101E60006011C9070DD0D0F83401C00709D0204651
:101E700000F0DEFB206848F2010100F58050C0F858
:101E80006011E026206800F58050D0F86011490408
:101E900025D5D0F83411490421D5E16D41F0080170
:101EA000E165D0F86011C9040DD5D0F8601141F298
:101EB000021211402166D0F8341121F44041C0F8DB
:101EC0003411666508E0D0F860214FF4CD4102F48A
:101ED000CD422266C0F860112046FFF739FE206827
:101EE0000025D0F8B010C1F34131032907D1D0F853
:101EF000B80060666665204600F0A5F96566206852
:101F0000D0F8B010C90608D5D0F8C00000F06000C5
:101F1000A066204600F016FAA5662068D0F8B0103A
:101F2000890608D5D0F8C00000F00F00E066204612
:101F3000FFF72DFEE5664FF0B040D0F8A81049023B
:101F400006D54FF48001C0F8A810204600F071FBC0
:101F500070BD0000F8B5040002D0606D10B104E05F
:101F60000120F8BD204600F06FF92320606572481B
:101F7000016841F002010160006800F00200009079
:101F8000207A08B14FF4000002F030F9206800F523
:101F90008050016841F00101016000F0A1FCE026E1
:101FA00005464FF4FA7706E000F09AFC401BB84271
:101FB00001D9042049E0206800F580500068C0077E
:101FC000F2D12068D0F8000220F4706501F0A8FD7D
:101FD0005A495B4A0144914202D245F4007516E029
:101FE000584A594902448A4202D245F440750EE0EB
:101FF0005649574A0144914209D35649564A084422
:10200000904202D245F4807501E045F48065206875
:10201000C0F8005201F084FD504A2168B0FBF2F094
:10202000401EC1F8DC002046FFF700FA206800F5EA
:102030008050D0F8001121F4E01141F40021C0F8E3
:1020400000116169880703D00120E065666587E7B4
:10205000206847F6FE7300F58050D0F808219A43B7
:1020600042EA4101C0F8081100210A46E06802EB8B
:10207000420504EB820300EBC50001604160816012
:10208000C160521C042A9861F0D3A1620323206826
:1020900000F58050C0F82C312068E26800F58050CF
:1020A000C0F814212068E26800F58050C0F82021B3
:1020B0005FF00002206902EB420604EB820500EBB0
:1020C000C600016041608160C160521C0161042A48
:1020D0004161E862EED3E16321646164E164A1647B
:1020E000206800F58050C0F830312068226900F582
:1020F0008050C0F81C212268206902F580524830C7
:10210000C2F828011022D4E900308088C3F8000307
:10211000D4E900308578C77890F801C006782D049E
:1021200046EA076045EA0C252843C3F80403E16545
:102130006265A2650020F8BDF444025800D3CEFECB
:10214000C0E1E40040F1E9FD40787D0100796CFCDC
:10215000005A6202001F0AFA80F0FA0240420F00A1
:10216000F0B5C16B00F12C02476C002633463446B3
:1021700052F8215057B30020F0BDEF68761CFF00E5
:102180001AD55B1C012B00D10C46491C042900D335
:10219000091F52F82100C568002D08DBC068400007
:1021A00005D50120D061491C042900D3091F936182
:1021B0000120C2E90414F0BDED68AD0012D50C4653
:1021C000491C012310E000BF52F82150EF68002F96
:1021D00001DB042ED1D39BB3C2E9041452F82410BE
:1021E000002526E0491C5B1C0429EDD3091FEBE701
:1021F000D1E904764FF0807C0F60C1F80CC026B1A5
:102200008E60CE6846F00076CE60CE6846F000461E
:10221000CE60166A1EB1CE6846F08046CE605E1E65
:10222000B54205D2641C042C00D3241F52F824109C
:102230006D1C9D42DCD3006800F58050C0F8281169
:102240000020906197E77047F0B587B004461421ED
:102250006846FEF71CFB35492068884263D1344844
:10226000016841F400410160016801F400410591F9
:10227000016841F480310160016801F48031059109
:10228000016841F400310160006800F400300590FD
:1022900027480830016841F004010160016801F03D
:1022A00004010591016841F001010160016801F03C
:1022B00001010591016841F002010160016801F02E
:1022C00002010591016841F04001016000680224AB
:1022D0000025694600F04000059003260B273220B8
:1022E0008DE8F100134800F0D7F9862069468DE8A3
:1022F000F100114800F0D0F9200369468DE8F100A3
:102300000E4800F0C9F94FF4205069468DE8F100FD
:102310000B4800F0C1F9002205213D2000F0C0FB70
:102320003D2000F0AFFB07B0F0BD00000080024090
:10233000D84402580008025800000258000402580D
:1023400000180258704700002DE9F041044600686B
:102350001E46D0F80032DB0719D1D0F8003223F046
:10236000787343EA415121F4F81141EA024141F006
:102370000D01C0F8001200F0B3FA4FF47A77054669
:1023800008E000BF00F0ACFA401BB84202D90120BF
:10239000BDE8F0812068D0F80002C007F2D12068C3
:1023A000D0F8040280B230600020F1E701480068F4
:1023B00008F020BE1C00002410B511B1826D102A57
:1023C00001D0012010BDFFF79FFA002010BD0000D2
:1023D00070B505460068D0F8000220F4706401F082
:1023E0009FFB1149114A0144914202D244F4007406
:1023F00016E00F4A0F4902448A4202D244F4407464
:102400000EE00D4A0D4902448A4209D30C4A0D4997
:102410001044884202D244F4807401E044F48064A1
:102420002868C0F8004270BD00D3CEFEC0E1E400D1
:1024300040F1E9FD40787D0100796CFC005A6202B0
:10244000001F0AFA80F0FA0230B5416D102901D060
:10245000012030BD2322C0F85420002100EB81026E
:10246000D26AD368491C042943F08043D360F5D372
:102470000121C1640168102322244DF241020D683C
:1024800045F002050D6001680D6845F001050D601D
:102490000168D1F8005D45F00105C1F8005D0168F3
:1024A00001F58051D1F8045145F00105C1F80451FE
:1024B000016801F58051D1F8085145F00105C1F8D6
:1024C0000851016801F58051D1F8605145F48175DA
:1024D000C1F86051016801F58051D1F834511543BC
:1024E000C1F8345143658465002030BD10B5416D9D
:1024F000F1B323214DF2410441650021026802F548
:102500008052D2F83431A343C2F83431026802F564
:102510008052D2F8043123F00103C2F8043102687A
:1025200002F58052D2F8083123F00103C2F80831D5
:102530000268136823F0010313600268D2F8003DBB
:1025400043F00103C2F8003D0268136823F0020360
:10255000C2F8003000EB8102D26AD368491C04291A
:1025600023F08043D360F5D310210022C26400E041
:1025700003E041658165104610BD012010BD2DE9C5
:10258000F0419046044619B1606D102804D04DE02A
:10259000E06D40F0010007E000222046FEF7DAFF80
:1025A00020B1E06D40F00200E0653FE0A06A04EB7E
:1025B0008001401C04288D69A06201D3001FA06225
:1025C0000146206804EB810100F580508969C0F85C
:1025D000201100F085F9E02706461CE0206800F590
:1025E0008050D0F86001C0040AD5E06D40F00800CA
:1025F000E065206800F58050D0F86001206614E0A6
:10260000B8F1FF3F07D000F06BF9811B414508D8B6
:10261000B8F1000F05D0E8680028DFDB0020BDE836
:10262000F081E06D40F00400E06567650120F6E7A9
:102630007047704770B504460068D0F80052ED0747
:102640001FD1D0F800029BB2124D20F07870C5F86F
:10265000043240EA415020F4F81040EA024020F0F1
:102660000C00001D40F00100C5F8000200F038F930
:102670004FF47A76054606E000F032F9401BB0428E
:1026800001D9012070BD2068D0F80002C007F3D145
:1026900070BD0000008002402DE9FC4F01257E4CFA
:1026A00000234FF0030A4FF0B04E4FF00F0BEBE05A
:1026B00005FA03F637403A0077D04F68012F05D06E
:1026C000022F03D0112F01D0122F1AD187684FEAA1
:1026D0004308D1F80CC00AFA08F927EA09070CFAEE
:1026E00008FC4CEA070CC0F808C0476891F804C021
:1026F000B743CCF3001C0CFA03FC4CEA070CC0F8FF
:1027000004C0C6684FEA430CD1F80880E1460AFAD3
:102710000CF7BE43019708FA09F848EA0608C0F822
:102720000C804E68022E01D0122E12D1DE084FEA24
:10273000437C00EB860600960F69366A4FEADC6C34
:102740000BFA0CF807FA0CF726EA08063743009E46
:1027500037620E790768DDF804C006F0030606FA52
:1027600009F627EA0C073E4306604E68F6001CD5C2
:102770004A4E376847F00207376036689F0706F011
:102780000206009623F0030606F1B046B1463F0F5D
:10279000D6F80864DFF808810BFA07FC404526EA02
:1027A0000C0603D14FF0000C41E06CE0DFF8F4C000
:1027B000604502D14FF0010C39E0DFF8ECC0604514
:1027C00002D14FF0020C32E0DFF8E0C0604502D1E8
:1027D0004FF0030C2BE0DFF8D8C0604502D14FF07A
:1027E000040C24E0DFF8CCC0604502D14FF0050CAA
:1027F0001DE0DFF8C4C0604502D14FF0060C16E0C2
:10280000DFF8B8C0604502D14FF0070C0FE0DFF8E9
:10281000B0C0604502D14FF0080C08E0DFF8A4C05A
:10282000604502D14FF0090C01E04FF00A0C0CFAA0
:1028300007FC4CEA060CC9F808C426684F6826EA6B
:102840000206FF0300D51643266066684F6826EA35
:102850000206BF0300D516436660D1F804C0764671
:10286000DEF800705FEACC2C27EA020700D5174398
:102870003760D1F804C077685FEA8C2C27EA02073A
:1028800000D5174377605B1C0A681746DA407FF46F
:102890000FAFBDE8FC8F000080000058F4440258E0
:1028A000000002580004025800080258000C0258A8
:1028B000001002580014025800180258001C025858
:1028C00000200258002402580AB1816170470904AF
:1028D000FBE7000001480068000C70470010005C36
:1028E0000148806870470000380000240248816871
:1028F000027811448160704738000024032010B52D
:1029000000F0EEF801F052F90F4A1049146813680C
:10291000C4F3032203F00F038A5CC95C02F01F02B8
:1029200001F01F01D0400A4A20FA01F11160094963
:102930000860002000F010F808B1012010BD00F080
:1029400093F8002010BD000018440258104F0108F1
:10295000480000244400002410B5002201461C2039
:102960008AB000F09DF81C2000F08CF81448016833
:1029700041F001010160006808A900F00100099020
:10298000684601F09FF801F0EDF80E494000002282
:1029900040F2E733B0FBF1F10B484FF080440460A4
:1029A000C0E90332491EC0E9011201F02CFC10B14C
:1029B00001200AB010BD044801F058FCF9E70000FE
:1029C000E844025840420F006C080024F0B5154C52
:1029D0004378211D0A1D23600378F3B143680B601F
:1029E000057BC67A817A437B2D07847B45EA0665A1
:1029F000C77B90F809C0067A90F800E045EAC1402C
:102A000040EA834040EA444040EA074040EA0C2064
:102A100040EA460040EA0E0001E000200860106035
:102A2000F0BD000098ED00E0BFF35F8F0448002187
:102A30000368034A23F480330360703211607047E7
:102A400024ED00E0074A40F00100064970321060B2
:102A5000086840F480300860BFF34F8FBFF36F8F7A
:102A60007047000024ED00E0054808B5016841F01A
:102A700002010160006800F00200009008BD000043
:102A8000F4440258002809DB410900F01F028900C4
:102A9000012001F1E0219040C1F8000170470000E1
:102AA0000E4BF0B41B680D46C3F30223C3F10706B7
:102AB000042E00D90426191D072901D2002300E0A5
:102AC000DB1E012404FA06F19C40491E2940641EC5
:102AD000994014402143F0BC02F026BF0CED00E009
:102AE000064900F0070210B54FF6FF040868044BD2
:102AF000204040EA02201843086010BD0CED00E0C1
:102B00000000FA0501680123C0F8FC33002280F8B8
:102B1000F4238869044A40F000608861486D1043DE
:102B20004865002070470000030000102DE9F041C7
:102B300004008AB005D094F8BD030025266820B1B2
:102B400008E001200AB0BDE8F081204684F8BC53BB
:102B500000F066F8032084F8BD03F06BC00500D4D4
:102B60002561206802F0A0FE04F1100168462822C9
:102B70008846FDF75AFE94E80F0002F075FD022723
:102B8000D8BB2068002102F0B7FE0020012610E02B
:102B9000C0EBC001421C04EB810181F83D6081F86B
:102BA0003F504D648D640D6581F83C00A1F84200F2
:102BB000D0B261688142EBD8002011E0C0EBC001C7
:102BC000421C04EB810181F8FD5181F8FF51C1F8ED
:102BD0000452C1F80852C1F8105281F8FC01D0B279
:102BE00061688142EAD8282241466846FDF71DFE09
:102BF00094E80F0002F09CFD10B184F8BD73A0E7CB
:102C0000606A84F8385084F8BD63012802D12046F8
:102C1000FFF778FF206802F07FFD002092E70000B8
:102C200030B587B0044614216846FDF730FE1849D8
:102C30002068884229D11748016841F001010160EC
:102C4000006800240221144D00F0010005904FF4AB
:102C5000C8500A228DE81300CDE903426946284690
:102C6000FFF71AFD4FF400706946CDE900042846CD
:102C70000294FFF711FD07480838016841F0006130
:102C80000160006800F00060059007B030BD0000F2
:102C900000000840E044025800000258134970B593
:102CA0000A68D243520705D5096801F0070181423D
:102CB00013D118E00A6822F0070202430A60FFF706
:102CC0000FFE0A4D4FF47A760446083D07E000BF38
:102CD000FFF706FE001BB04201D9012070BD286835
:102CE000C0438004F4D4002070BD00000C4802589A
:102CF0000248016841F08071016070470C48025839
:102D000010B500F00DFF05490968054AC1F302112D
:102D1000515C01F01F01C84010BD00002044025862
:102D2000104F0108494930B5484C0B1D0A6814344E
:102D300009681D68246802F00303C5F30012C1F39B
:102D40000531C4F3CC04002914FB02F200EE102A72
:102D5000F8EE400A75D03F4A9FED3D1AB7EE000AE3
:102D60006BB1DFED3D1A012B01D0022B64D002EED6
:102D7000101A1168F8EE422A81EEA22A21E0334CA3
:102D8000283C23689B0612D5344B246801EE901A28
:102D90001168C4F3C104F8EE612AE34001EE903AF1
:102DA000C1F30801F8EE611A81EEA22A0BE001EEF0
:102DB000901ADFED2B2A00BFF8EE611A116882EE3F
:102DC000A12AC1F3080101EE901A1168F8EE611A08
:102DD00040EE811A71EE800A62EE200AC1F34621AC
:102DE00001EE101AB8EE411A31EE001AC0EE811A47
:102DF000BCEEE11A80ED001A1168C1F3064101EE44
:102E0000101AB8EE411A31EE001AC0EE811ABCEE6B
:102E1000E11A80ED011A1168C1F3066101EE101A82
:102E2000B8EE411A31EE000A80EE801ABCEEC10AFB
:102E300080ED020A30BD04E001EE901ADFED092AB0
:102E4000BAE70021016041608160F3E7284402583D
:102E500000000039384402580024744A0090D0031E
:102E60000024744C0024F44A494930B5484C0B1DE9
:102E70000A681C3409681D68246802F00303C5F35E
:102E80000022C1F30551C4F3CC04002914FB02F263
:102E900000EE102AF8EE400A75D03F4A9FED3D1A29
:102EA000B7EE000A6BB1DFED3D1A012B01D0022B0A
:102EB00064D002EE101A1168F8EE422A81EEA22ABE
:102EC00021E0334C283C23689B0612D5344B246800
:102ED00001EE901A1168C4F3C104F8EE612AE340D0
:102EE00001EE903AC1F30801F8EE611A81EEA22AD0
:102EF0000BE001EE901ADFED2B2A00BFF8EE611A0D
:102F0000116882EEA12AC1F3080101EE901A11683E
:102F1000F8EE611A40EE811A71EE800A62EE200A24
:102F2000C1F3462101EE101AB8EE411A31EE001A33
:102F3000C0EE811ABCEEE11A80ED001A1168C1F3EF
:102F4000064101EE101AB8EE411A31EE001AC0EE39
:102F5000811ABCEEE11A80ED011A1168C1F3066115
:102F600001EE101AB8EE411A31EE000A80EE801A16
:102F7000BCEEC10A80ED020A30BD04E001EE901AF9
:102F8000DFED092ABAE70021016041608160F3E7C3
:102F90002844025800000039404402580024744A72
:102FA0000090D0030024744C0024F44A2DE9FC5F07
:102FB000044650F8241B002500902E460801FE4FC1
:102FC000DFF8F8831DD5606E50B1B0F5801F0CD0CE
:102FD000B0F5001F0ED0B0F5401F1DD001250FE049
:102FE000386840F40030386016E00221201D01F0FE
:102FF000A9FD03E00098022101F034FE05000BD08A
:103000002E462088C00523D5606D05281ED2DFE836
:1030100000F00C11161B1B00626ED8F8001021F492
:1030200040111143C8F80010EBE7386840F4003055
:10303000386009E00021201D01F084FD03E00098C4
:10304000002101F00FFE05466DB100E001252E467E
:103050002088800528D5A06D80281ED00CDC90B17A
:1030600040280ED114E0626DD8F8001021F007015D
:103070001143C8F80010EBE7C02813D0B0F5807FEB
:1030800010D001250FE0386840F40030386009E0C6
:103090000021201D01F056FD03E00098002101F001
:1030A000E1FD054695B12E462088DFF810934005D6
:1030B00009F108092CD5D4F8A400B0F5800F20D070
:1030C0000DDCA0B1B0F5001F0FD115E0A26DD8F84E
:1030D000001021F4E0711143C8F80010E4E7B0F5E6
:1030E000C00F13D0B0F5000F10D001250FE03868E5
:1030F00040F40030386009E00021201D01F022FD7D
:1031000003E00098002101F0ADFD054675B12E46A3
:10311000208800052DD5D4F8A800B0F1007F21D07B
:103120000EDCA8B1B0F1807F10D116E0D4F8A42055
:10313000D9F8001021F460011143C9F80010E7E745
:10314000B0F1407F13D0B0F1806F10D001250FE0B7
:10315000386840F40030386009E00021201D01F09B
:10316000F1FC03E00098002101F07CFD05466DB103
:103170002E46206880011FD5A06CD8B110280FD032
:10318000202812D0302815D0012514E0D4F8A8202A
:10319000D9F8001021F0E0611143C9F80010E8E708
:1031A000386840F40030386004E00221201D01F04E
:1031B000C9FC05466DB12E462088C0042BD5E06DB4
:1031C000B0F5005F20D00DDCA0B1B0F5805F0FD16D
:1031D00015E07A48A26C001F016821F0300111430C
:1031E0000160E9E7B0F5405F13D0B0F5804F10D033
:1031F00001250FE0386840F40030386009E0002114
:10320000201D01F09FFC03E00098002101F02AFD41
:10321000054685B12E462088800429D5206EB0F55C
:10322000403F23D010DC08B3B0F5803F14D0B0F598
:10323000003F0FD115E0E26DD8F8001021F4E04115
:103240001143C8F80010E6E7B0F5802F0ED0B0F5B6
:10325000A02F0BD001250AE00121201D01F072FCF6
:1032600003E00098012101F0FDFC05468DB12E46DA
:10327000208840042AD5D4F8AC00B0F1405F23D0B8
:1032800010DC08B3B0F1805F14D0B0F1005F0FD153
:1032900015E0226ED8F8001021F4E0211143C8F89F
:1032A0000010E5E7B0F1804F0ED0B0F1A04F0BD089
:1032B00001250AE00121201D01F044FC03E00098F3
:1032C000012101F0CFFC05466DB12E462088000497
:1032D0001FD5E06ED8B1B0F1805F0ED0B0F1005FC5
:1032E00010D0012514E0D4F8AC20D9F8001021F05A
:1032F000E0411143C9F80010E8E7386840F40030B5
:10330000386004E00121201D01F01CFC05466DB170
:103310002E462068C0011ED5606CD0B101280ED0A9
:10332000022811D0032814D0012513E0E26ED8F84A
:10333000001021F040511143C8F80010E9E7386847
:1033400040F40030386004E00221201D01F0FAFB57
:10335000054685B12E462068DFF85CB04002ABF12F
:103360001C0B57D51648016841F480710160FFF7C6
:10337000B7FA82460EE01148626C001F016821F026
:10338000030111430160E6E7FFF7AAFAA0EB0A0088
:1033900064283DD80A480068C005F5D57DBBDFF834
:1033A0001CA0B4F8B0100AF1200ADAF8000001F409
:1033B000407100F4407005E02C440258504402581B
:1033C00000480258884211D0DAF80010DAF80020DC
:1033D00021F4407142F48032CAF80020DAF800206B
:1033E00022F48032CAF80020CAF80010D4F8B000E5
:1033F000B0F5807F21D1FFF773FA019019E008E062
:10340000FFF76EFA0199411A41F28830814210D9D2
:1034100003252E462078DFF830A4C0073DD0A06FEA
:10342000182838D026DC80B3082829D0102825D1C8
:103430002CE0DAF800008007E2D5D4F8B010C1F330
:103440000120032858460DD0016821F47C51016009
:10345000B4F8B020DAF80010C2F30B021143CAF836
:103460000010D7E7F94A036802EA111223F47C51ED
:103470001143ECE720280ED028280CD001250BE0C2
:103480000121201D01F05EFB04E004E00098012111
:1034900001F0E8FB05465DB12E46207880071ED579
:1034A000606F062819D2DFE800F0160C1116161608
:1034B000A26FDAF8001021F038011143CAF80010A9
:1034C000EBE70121201D01F03DFB03E00098012105
:1034D00001F0C8FB054675B100E001252E462078B5
:1034E00040071FD5D4F89000062819D2DFE800F075
:1034F000160C11161616626FDAF8001021F007018B
:103500001143CAF80010EAE70121201D01F01AFB5F
:1035100003E00098012101F0A5FB05469DB100E004
:1035200001252E46207880062BD5D4F88C00B0F1EA
:10353000405F24D011DC10B3B0F1805F15D0B0F142
:10354000005F10D116E0D4F89020D9F8001021F0D7
:1035500007011143C9F80010E4E7B0F1804F0ED025
:10356000B0F1A04F0BD001250AE00021201D01F091
:10357000E9FA03E00098022101F074FB05468DB1E1
:103580002E46207840062BD5D4F89800B0F5406F31
:1035900024D011DC10B3B0F5806F15D0B0F5006FFA
:1035A00010D116E0D4F88C20DAF8001021F0E041B8
:1035B0001143CAF80010E4E7B0F5805F0ED0B0F513
:1035C000A05F0BD001250AE00021201D01F0BAFA0E
:1035D00003E00098022101F045FB05468DB12E461F
:1035E000207800062BD5D4F89C00B0F5C04F24D02D
:1035F00011DC10B3B0F5005F15D0B0F5804F10D1DD
:1036000016E0D4F89820D9F8001021F4E0511143C5
:10361000C9F80010E4E7B0F5004F0ED0B0F5204F28
:103620000BD001250AE00021201D01F08BFA03E0F8
:103630000098022101F016FB05464DB12E46207878
:1036400000071ED5D4F88000B0F5805F0AD00FE0E7
:10365000D4F89C20D9F8001021F460411143C9F836
:103660000010ECE70098022101F0FCFA00B10126FD
:10367000D4F88020DAF8001021F440511143CAF840
:1036800000102078C00613D5D4F89400B0F5807FE0
:1036900005D10098022101F0E5FA00B10126D4F825
:1036A0009420D9F8001021F440711143C9F800109A
:1036B0002068000316D5D4F8A00038B1B0F5803FDB
:1036C00009D0B0F5003F0BD001250AE00021201DF4
:1036D00001F038FA03E00098022101F0C3FA054630
:1036E00085B12E462068400322D5D4F88400B0F579
:1036F000801F11D0B0F5001F13D0B0F5401F15D0BA
:10370000012514E0D4F8A020D9F8001021F44031AC
:103710001143C9F80010E5E7386840F4003038601C
:1037200004E00098012101F09DFA054655B12E46AE
:103730002068C0031CD5E06C70B1B0F5803F10D09C
:10374000012514E0D4F88420DAF8001021F44011A7
:103750001143CAF80010EBE7386840F400303860D5
:1037600004E00221201D01F0EDF90546CDB12E4601
:103770002068800005D50098022101F073FA00B19D
:103780000126206880031BD5E06FB8B1B0F5807FBB
:1037900010D0B0F5007F11D0B0F5407F0ED00125DC
:1037A0000DE02948E26C0838016821F480311143AA
:1037B0000160DDE7386840F400303860F5B32E462C
:1037C0002068C00207D5226FD8F8001021F0004110
:1037D0001143C8F800102068C00008D5D4F8B42000
:1037E000DBF8001021F480411143CBF80010206871
:1037F000800207D5A26ED8F8001021F08071114325
:10380000C8F80010206840000CD5DBF8001021F447
:103810000041CBF80010DBF80010D4F8B8201143B9
:10382000CBF800102068002807DA0748226D083816
:10383000016821F040511143016000E008E086B1C9
:103840000120BDE8FC9F000054440258CFFFFF0058
:10385000E26FDAF8001021F440711143CAF8001049
:10386000AEE70020EDE700002DE9F05F04000F4611
:103870007ED0DFF83882D8F8000000F00F00B842A0
:103880000CD2D8F8001021F00F013943C8F800100D
:10389000D8F8000000F00F00B84269D12078844DBC
:1038A00040070AD52069296801F07001884204D9CF
:1038B000296821F070010143296020787C4E361D73
:1038C00000070AD56069316801F07001884204D9A7
:1038D000316821F07001014331602078C0060AD5BB
:1038E000A069316801F4E061884204D9316821F4AB
:1038F000E061014331602078DFF8B4B180060BF15C
:10390000080B0CD5E1695846DBF8002002F0700284
:10391000914204D9026822F070020A4302602078C2
:1039200080070AD5E068296801F00F01884204D9B0
:10393000296821F00F01014329602078C0073ED09B
:103940005B49A2682868183920F470601043286029
:103950006068022818D0032819D00968012819D0F6
:10396000490700294ADADFF848A1AAF1080A00E06D
:1039700044E0DAF8002022F007020243CAF80020EF
:10398000FEF7AEFF814612E009688903E9E709689E
:103990008901E6E7C905E4E7FEF7A2FFA0EB09010C
:1039A00041F28830814202D90320BDE8F09F61686E
:1039B000DAF8000000F03800B0EBC10FECD120784D
:1039C00080070AD5E068296801F00F01884204D217
:1039D000296821F00F0101432960D8F80010404602
:1039E00001F00F01B9420BD9016821F00F013943F1
:1039F0000160006800F00F00B84201D00120D4E758
:103A0000207840070AD52069296801F070018842B2
:103A100004D2296821F07001014329602078000751
:103A20000AD56069316801F07001884204D23168BA
:103A300021F07001014331602078C0060AD5A069E9
:103A4000316801F4E061884204D2316821F4E06118
:103A500001433160207880060CD5E1695846DBF8D7
:103A6000002002F07002914204D2026822F070023B
:103A70000A43026000F09AF80E492A682B68C2F3E4
:103A8000032203F00F038A5CC95C02F01F0201F0FD
:103A90001F01D040084A20FA01F11160074908606F
:103AA00007480068BDE8F05FFEF756BF00200052EF
:103AB00018440258104F0108480000244400002414
:103AC0003C00002470B5144C3F220260124A246866
:103AD0000832131D114D04F00704446016681C1DC4
:103AE00006F470668660166806F00F06C6601268F7
:103AF00002F0700202611A6802F0700242611A68F4
:103B000002F4E0628261226802F07002C2612868F9
:103B100000F00F00086070BD1044025800200052F1
:103B200030B500F043F80B4A0B490C4B156814688C
:103B3000C5F3032204F00F048A5C095D02F01F0242
:103B400001F01F01D040064A20FA01F1196010600F
:103B5000084630BD18440258104F010848000024A0
:103B60004400002400B5FFF7DBFF05490968054A5A
:103B7000C1F30211515C01F01F01C84000BD0000FB
:103B80001C440258104F010800B5FFF7C9FF054952
:103B90000968054AC1F30221515C01F01F01C840C8
:103BA00000BD00001C440258104F0108454970B583
:103BB00045480968434B103B11F0380208D0011109
:103BC000082A03D0102A0BD0182A0BD0084670BD43
:103BD00019688906FBD51968C1F3C101C84070BDD9
:103BE0003A4870BD3749374D18310C1D24350A68E5
:103BF000096826682D6802F0030406F00102C1F38B
:103C00000511C5F3CC0515FB02F200EE102AB8EE43
:103C1000400AE9B32F4ADFED2E0AB7EE001A6CB165
:103C2000DFED2D1A012C01D0022C43D002EE101A28
:103C30001068F8EE422A81EEA22A1EE01C68A40653
:103C400011D51B6801EE901A1168C3F3C103F8EE99
:103C5000612AD84001EE900AC1F30800F8EE611A1B
:103C600081EEA22A0BE001EE901ADFED1C2A00BFC4
:103C7000F8EE611A106882EEA12AC0F3080001EE86
:103C8000900AF8EE611A40EE201A31EE810A00E047
:103C900015E022EE000A1068C0F34620401C00EE3A
:103CA000900AF8EE600A80EE201ABCEEC10A10EE0F
:103CB000100A70BD01EE901ADFED092AD8E7002046
:103CC00070BD0000104402580090D00300127A002A
:103CD00000000039304402580024744A0024744C17
:103CE0000024F44A2DE9F05F04007CD0FF4F2078D7
:103CF000FE4D1837DFF8F493103DC00748D0D9F8CF
:103D00000000396800F03800102815D0182803D1B9
:103D100001F0030002280FD06068B0F5803F12D098
:103D200010B1B0F5A02F18D0286820F4803028609A
:103D3000286820F4802009E02868800328D560687E
:103D40000028D2D024E0286840F4803028606068E1
:103D500088B1FEF7C5FD064609E0286840F48020DA
:103D60002860F0E7FEF7BCFD801B64287ED8286839
:103D70008003F7D50CE0FEF7B3FD064605E000BF73
:103D8000FEF7AEFD801B6428F0D828688003F7D4C6
:103D9000207841F20308D54E0C3E800753D5D9F860
:103DA0000000396810F038000ED0182801D18807BB
:103DB0000AD0E068A8B3296821F0190101432960FD
:103DC000FEF78EFD82461BE02868400702D5E068BA
:103DD00000288AD0FEF77EFD40451BD82069402888
:103DE00012D0316800E0CCE021F47C3141EA0030AF
:103DF000306028E0FEF774FDA0EB0A000228B5D879
:103E000028684007F6D5E5E7306820F47C3040F4B8
:103E10000030EDE7207C316821F0FE4141EA00608E
:103E2000E6E7FFE7286820F001002860FEF758FD6C
:103E3000824605E0FEF754FDA0EB0A00022895D863
:103E400028684007F6D42078C0065FD5D9F800006E
:103E5000DFF898B2396800F03800ABF1040B08289D
:103E600012D0182805D101F0030000E0EAE0012893
:103E70000AD0E0690028286838D040F08000286027
:103E8000FEF72EFD824623E02868C00523D5E069B1
:103E9000802876D11FE0206A202821D0316821F0C7
:103EA000F84141EA8060306030E000BF94F82010B3
:103EB000DBF8002022F07C5242EA0161CBF80010CE
:103EC00024E000BFFEF70CFDA0EB0A00022896D804
:103ED0002868C005F6D5FEF7FDFC4045E6D8DAE7D0
:103EE000306820F0F84040F08040DCE720F08000AF
:103EF0002860FEF7F5FC064605E000BFFEF7F0FC83
:103F0000801B02289BD82868C005F7D420780007BA
:103F100029D576486169643000298046016811D04E
:103F200041F001010160FEF7DBFC064605E000BF41
:103F3000FEF7D6FC801B0228C9D8D8F800008007FD
:103F4000F6D510E021F001010160FEF7C9FC06463C
:103F500005E000BFFEF7C4FC801B022872D8D8F829
:103F600000008007F6D42078800623D5A0690028B9
:103F7000286810D040F480502860FEF7B1FC064657
:103F800005E02CE1FEF7ACFC801B02285AD828681B
:103F90008004F7D50EE020F480502860FEF7A0FCE6
:103FA000064604E0FEF79CFC801B02284AD82868DD
:103FB0008004F7D4207840074FD5DFF83481D8F853
:103FC000001041F48071C8F80010FEF789FC064625
:103FD00005E000BFFEF784FC801B642832D8D8F8C7
:103FE0000000C005F6D5414EA068603601280AD011
:103FF00008B1052813D0306820F001003060306827
:1040000020F0040002E0306840F001003060A06859
:1040100041F2883A90B1FEF763FC80460AE03068CE
:1040200040F004003060EEE7FEF75AFCA0EB080118
:10403000514507D830688007F6D50EE0FEF750FCF2
:10404000804607E084E000BFFEF74AFCA0EB0801D1
:1040500051457DD830688007F6D4606AF0B3DFF848
:104060008C80D9F8001008F12008C1F3C20103299F
:104070006FD00228286820F08070286003D0FEF7F7
:104080002FFC044680E0FEF72BFC064605E000BF4F
:10409000FEF726FC801B022873D828688001F7D41D
:1040A000E26A40F2F331386854F8283F884340EA26
:1040B000021018433860217B4FF4FE0C22894FF028
:1040C000FE47208A4902267D521E401EA1F500713E
:1040D00089B20CEA0040C2F3080200E081E011431B
:1040E000761E0143014807EA066203E010440258C5
:1040F000004802581C3011433B4AC8F800100168C0
:1041000021F00101016011684FF6F876236AB1438E
:1041100041EAC30111600168A26921F00C01114359
:1041200001600168E26921F0020111430160016848
:1041300041F480310160016841F40031016001689F
:1041400041F480210160016841F00101016001E05A
:1041500017E01DE0286840F080702860FEF7C0FB83
:10416000044604E0FEF7BCFB001B022809D82868BF
:104170008001F7D535E000BFFEF7B2FB001B022837
:1041800002D90320BDE8F09F28688001F4D428E01C
:1041900039680128D8F8000021D0A26A01F0030391
:1041A00093421CD1E26AC1F305118A4217D1216BF7
:1041B000C0F30802491E8A4211D1616BC0F3462246
:1041C000491E91420BD1A16BC0F30642491E914298
:1041D00005D1E16BC0F30660491E814201D0012088
:1041E000D0E70020CEE700003444025803490A68B3
:1041F00022F4600202430A60704700000404005881
:1042000070477047704710B5040003D094F83D0024
:1042100010B107E0012010BD002084F83C002046CA
:1042200000F022F8022084F83D002068211D00F0F3
:10423000C9FE012084F8480084F83E0084F83F005D
:1042400084F8400084F8410084F8420084F8430078
:1042500084F8440084F8450084F8460084F8470058
:1042600084F83D00002010BD7047000090F83D101C
:10427000012901D0012070470B4A022180F83D102E
:104280000168CB6843F00103CB600068816811408E
:10429000062906D0B1F5803F03D0016841F0010145
:1042A000016000207047000007000100704770B5F2
:1042B0000446006800250169C943890715D4C1680F
:1042C000C943890711D4EA1E0261012121772068C0
:1042D00080698007204602D0FFF7E8FF04E000F085
:1042E000A7F8204600F0A5F8257720680169C943A2
:1042F000490717D4C168C943490713D402216FF095
:104300000402026121772068806910F4407F204612
:1043100002D0FFF7CBFF04E000F08AF8204600F05F
:1043200088F8257720680169C943090716D4C16850
:10433000C943090712D404216FF0080202612177F2
:104340002068C0698007204602D0FFF7AFFF04E075
:1043500000F06EF8204600F06CF8257720680169BF
:10436000C943C90617D4C168C943C90613D4082173
:104370006FF01002026121772068C06910F4407F5D
:10438000204602D0FFF792FF04E000F051F82046EB
:1043900000F04FF8257720680169C943C90708D1A3
:1043A000C168C943C90704D1891E0161204600F0D4
:1043B00041F820680169C943090609D4C168C943A5
:1043C000090605D46FF0800101612046FFF719FF4F
:1043D00020680169C943C90509D4C168C9430906F0
:1043E00005D46FF4807101612046FFF709FF206852
:1043F0000169C943490609D4C168C943490605D4BE
:104400006FF040010161204600F01BF8206801694F
:10441000C94389060BD4C168C943890607D46FF024
:10442000200101612046BDE87040FFF7EBBE70BD82
:10443000704770470068B0F1804F01D1FEF756BA5F
:104440007047704730B590F87C10012918D00122D0
:1044500080F87C202421C0F880100022202450F80D
:10446000601B0B680D6823F0005325F001050D60FB
:10447000426050F8601C0B6004620277104630BD49
:10448000022030BD70B5044690F87C0001281DD094
:10449000012284F87C202420C4F88000206805686C
:1044A000026822F0010202602068826822F06062E5
:1044B0000A438260204600F0E7FD226820210020A8
:1044C0001560C4F8801084F87C0070BD022070BDB7
:1044D00070B5044690F87C0001281DD0012284F8B4
:1044E0007C202420C4F8800020680568026822F03F
:1044F000010202602068826822F060420A43826002
:10450000204600F0C1FD2268202100201560C4F87B
:10451000801084F87C0070BD022070BD10B50400CE
:1045200003D0D4F8800010B107E0012010BD0020B6
:1045300084F87C00204600F027F82420C4F880008E
:104540002068016821F001010160204600F062FE50
:104550000128EBD0A06A10B1204600F0C7FD20680A
:10456000416821F4904141602068816821F02A016E
:1045700081602068016841F0010101602046BDE8CA
:10458000104000F017BE000010B586B0044614219C
:104590006846FCF77CF913492068884220D112480C
:1045A000016841F480210160006800F480200590DA
:1045B0000D480838016841F00801016000680723D0
:1045C000022200F00800059000204FF44071009195
:1045D0006946CDE90120CDE903030448FEF75CF804
:1045E00006B010BD00480040E8440258000C0258D4
:1045F000FEE7000007490968C9070AD00549803964
:104600000968C90705D04FF060410A68002AFCD04C
:1046100008707047800E00E038B504466A460020F6
:104620000090012163692068984700286FF0040515
:1046300025DB6369012120686A46984700281EDB54
:104640000098400701D4012038BD6369002120682B
:104650006A469847002812DB0098C10408D44FF43A
:10466000045181431CD081041CD4C0051CD415E026
:1046700063691F2120686A469847002801DA2846A6
:1046800038BD0098C10401D4062038BDC0F38200B3
:10469000062805D0022805D0052805D0052038BDFC
:1046A000022038BD032038BD042038BD2DE9F84371
:1046B000044600200090064660680025A8BBA0685C
:1046C00000B18047202020606FF004076369122149
:1046D0006A4630469847002801DA3D4607E00098D0
:1046E00000F01F00B04202D10025266002E0761CD7
:1046F0001F2EEBD920681F2802D96FF0020530E089
:104700007DBB236900214FF400429847002830DB2D
:104710006369002120686A469847002827DBA06962
:1047200080474FF4FA7806460CE00EE0A069804717
:10473000801B404518D86369002120686A46984765
:10474000002814DB00980004F0D4A06980474FF4DF
:10475000FA670646A0698047801BB842FAD9012053
:1047600060602846BDE8F8836FF00105F9E73D4633
:10477000F7E76FF00305F4E788B1CA687AB18A6891
:104780006AB10A695AB10A6882604A68C260CA6836
:1047900042618A68026109698161002070474FF0B7
:1047A000FF3070472DE9FF410024009401940294EA
:1047B0000394FEF739F901258DF80C500E208DF881
:1047C00008008DF8094003278DF80D406846174E04
:1047D0008DF800508DF80A508DF80E408DF801408C
:1047E00001968DF80B708DF80F40FEF7EFF807205B
:1047F0008DF808008DF80C5068468DF809408DF84A
:104800000D508DF800508DF80A408DF80E408DF84F
:10481000015001968DF80B708DF80F50FEF7D6F809
:104820000420FEF70FF9BDE8FF810000000004300E
:104830002DE9F04786B014216846FCF728F83F4878
:10484000016841F004010160016801F00401059173
:10485000016841F080010160016801F0800105916B
:10486000016841F001010160016801F00101059159
:10487000016841F002010160016801F00201059147
:10488000016841F008010160016801F0080105912B
:10489000016841F040010160016801F040010591AB
:1048A000016841F010010160006844F20106DFF880
:1048B0009080002200F01000314605904046FEF73F
:1048C00003F8DFF880903711002239464846FDF79B
:1048D000FBFFDFF874A0002202215046FDF7F4FF31
:1048E0000024694670100294CDE900041748FDF7D2
:1048F000D3FE01250096CDE9015469464046039454
:10490000FDF7CAFE00976946CDE901544846039475
:10491000FDF7C2FE0E4980208DE813000D48694660
:10492000FDF7BAFE02200090CDE9015469465046D9
:104930000394FDF7B1FE06B0BDE8F087E0440258ED
:1049400000040258000C02580010025800080258D7
:104950000000111100180258F0B5534CC0238BB061
:10496000A822261D2370002562700A21A570FF2051
:10497000E170371D307000217070B0700846F5701E
:104980003D707D70BD70FD700EF03AF92088A17801
:10499000E27844BA454B90FA90FC240490FA90FED9
:1049A00044EA01244FEA0C4C4CEA012C14431FFA50
:1049B0008CFC40BA4FEA0E4E24064EEA0121C0B2EA
:1049C000114344EA0C2C3A4C4CEA002040EA1160B6
:1049D000A6F1100108603088B178F27846BA90FAF2
:1049E00090FC360446EA01264FEA0C4C16434CEA8A
:1049F000012C90FA90FE1FFA8CFC360646EA0C2633
:104A000040BA4FEA0E4C4CEA0121C0B2114346EACB
:104A1000002040EA1160A7F1100108603888B978D9
:104A2000FA7846BA47BA360490FA90FC3F0446EA50
:104A3000012647EA0127164340BABFB24FEA0C4CA1
:104A400036064CEA0121C0B2114346EA072646EA7F
:104A5000002040EA11601449091F08600095CDE963
:104A600001430B4613480A1F083905F0F3FD1148AE
:104A700006F00CF80F4890F82D0040070D4802D5BD
:104A800006F018F901E006F007F80B49094806F0AE
:104A900057F80A491C2203A8FBF7C7FE054903A8DB
:104AA00006F004FB0BB0F0BD10000024D12D01086E
:104AB0000D6B0008B808002471690008B44E0108A5
:104AC0001148002110B50F4C0C224FF4E133046063
:104AD000C0E90131C160C0E904128161C1610162B4
:104AE00041628162FFF71AFD07480021FFF7F0FCE1
:104AF00005480021FFF7C6FCBDE810400248FFF75B
:104B0000A1BC000000480040840100240B480021A3
:104B100030B40223084D0122C0E903318361092426
:104B2000C0E90721C0E90912C0E90B21C0E900541E
:104B300030BCFDF7FBBF000000000840100200245D
:104B4000FEE770472DE9F047454D044689464FF092
:104B5000000A2868C04380070AD0414E283E3068CA
:104B600020F080603060FDF7BBFE0746B04608E0ED
:104B70000120BDE8F08700BFFDF7B2FEC01B022890
:104B800067D8D8F800000001F6D4206829684FF4EF
:104B9000FE0721F47C313E0241EA00302860207A91
:104BA000A389B4F804C040022D4D2D495B1E227C20
:104BB000ACF1010C1035091DA0F5007080B2521E39
:104BC000CCF3080C07EA034340EA0C00184306EA5A
:104BD0000262104328600868626920F0C000104338
:104BE00008600A68A06922F0200202430A60281DBA
:104BF0000A6822F010020A6002684FF6F873E4694E
:104C00009A4342EAC40202600868B9F1000F40F01A
:104C100010020A6011D00868B9F1010F11D040F4F8
:104C200000100860D8F80000444640F08060C8F8E2
:104C30000000FDF755FE05460DE0086840F4002031
:104C4000EFE740F48010ECE7FDF74AFE401B022836
:104C500001D903208DE720680001F5D5504688E78B
:104C6000284402582DE9F047454D044689464FF047
:104C7000000A2868C04380070AD0414E283E3068A9
:104C800020F080503060FDF72BFE0746B04608E06C
:104C90000120BDE8F08700BFFDF722FEC01B0228FF
:104CA00067D8D8F800008000F6D4208829684FF42F
:104CB000FE0721F07C713E0241EA00502860207A14
:104CC000A389B4F804C040022D4D2D495B1E227CFF
:104CD000ACF1010C1835091DA0F5007080B2521E10
:104CE000CCF3080C07EA034340EA0C00184306EA39
:104CF0000262104328600868626920F44060104333
:104D000008600A68A06922F4007202430A60281D44
:104D10000A6822F480720A6002684FF6F873E46948
:104D20009A4342EAC40202600868B9F1000F40F4F5
:104D300080720A6011D00868B9F1010F11D040F0FB
:104D400080700860D8F80000444640F08050C8F8F1
:104D50000000FDF7C5FD05460DE0086840F4800041
:104D6000EFE740F40000ECE7FDF7BAFD401B022836
:104D700001D903208DE720688000F5D5504688E7EB
:104D800028440258F8B5FFF7E7FD4FF47A7005F0B4
:104D9000E1FF00224DF26F762020114605F030F938
:104DA000050004D01049324604F0F6FE04461CB15A
:104DB000284605F003F8F8BD6946284605F0ECF9E9
:104DC00030B9009928468A89083104F099FF05E036
:104DD0006946284605F0E0F90028F9D100992846EF
:104DE00005F088FBF4E700006C500108502010B576
:104DF00080F31188BFF34F8FBFF36F8F0FF0AAFEC0
:104E000018B104494FF080500860002080F31188E9
:104E100010BD000004ED00E070B5CCB04C212FA80F
:104E2000FBF735FD202142A8FBF731FDBC21684688
:104E3000FBF72DFD0220FDF731FF23480024234915
:104E4000026842F44042026002680A6842F00102CD
:104E50000A60096801F001014A9101688904FCD5E2
:104E60004FF4A022012102203890CDE92F1239AA57
:104E70007823142582E80B000C263E90CDE93C05F2
:104E8000CDE93F642FA84194FEF72CFF4020082372
:104E90000501CDE9453042ABCDE9470549903F21B9
:104EA000032283E81600042142A8FEF7DDFC08482F
:104EB0001D940090C10468462191FEF777F8FDF734
:104EC00017FF4CB070BD0000184802582C04005861
:104ED000020004002E48F0B52E4A016841F470012A
:104EE0000160106800F00F00072804D2106820F05D
:104EF0000F00C01D106028490020274C10340B689B
:104F0000264D43F001030B6020600B682B400B60C3
:104F1000136803F00F03072B04D9136823F00F0362
:104F2000DB1D13601C4C1E4A18341E4B261D371DFA
:104F30002060194C1C4D28343060261D3860371D08
:104F400023603B1D35601C1D3A60251D2E1D186019
:104F5000331D22602860326018600A680E4B134CC3
:104F600022F4802260330A60186020686FF30F001B
:104F7000B0F1005F03D20E490120C1F8080143F2ED
:104F8000D2000C49024B4A03803B08601A60F0BD16
:104F900088ED00E000200052004402587FEDF6EA60
:104FA00080020101000202020000FF010010005C0B
:104FB00000800051004000520148FFF778B900001E
:104FC0006C0800242DE9F047274B4FF0804A274D0D
:104FD00002689842264E274F274C09D0504507D0EB
:104FE000A84205D0B04203D0B84201D0A04205D1BA
:104FF000D1F804C022F070024CEA0202DFF87CC053
:10500000DFF87C809842DFF87C900FD050450DD0BF
:10501000A8420BD0B04209D0B84207D0A04205D078
:10502000604503D0404501D0484503D1CD6822F406
:1050300040722A434D6922F080022A43026098425E
:105040008A68C2620A68826207D0A04205D06045C1
:1050500003D0404501D0484501D1096901630121D0
:105060004161BDE8F08700000000014000040040FD
:1050700000080040000C00400004014000400140D6
:1050800000440140004801403FB514A1D1E900238C
:1050900014A1CDE90023D1E90021CDE90221416E1F
:1050A000B9B1016802AC8A688968C2F34262490FEB
:1050B0001DF80150615C2D01B5FBF1F1A0F86A10FB
:1050C0001DF80210A25C0901B1FBF2F1A0F8681012
:1050D0003FBD0121A0F86A10F8E7000001010103BB
:1050E00007010000080402040801010190F82810DB
:1050F000C90706D00168C36A4A6822F400321A431D
:105100004A6090F82810890706D50168036B4A6841
:1051100022F480321A434A6090F82810490706D5D5
:105120000168436B4A6822F480221A434A6090F86F
:105130002810090706D50168836B4A6822F40042EB
:105140001A434A6090F82810C90606D50168C36B57
:105150008A6822F480521A438A6090F828108906DF
:1051600006D50168036C8A6822F400521A438A60EB
:1051700090F82810490611D50168436C4A6822F45A
:1051800080121A434A60416CB1F5801F06D1016854
:10519000836C4A6822F4C0021A434A6090F82810CF
:1051A000090606D50168C26C486820F40020104347
:1051B00048607047F8B500260446C0F88860FDF7DF
:1051C0008FFB054620686FF07E470068000708D512
:1051D00000222B464FF400112046009700F0F2F910
:1051E00060B92068006840070AD500222B464FF4BA
:1051F00080012046009700F0E5F908B10320F8BDD2
:105200002020C4F8800084F87C60C4F8840000206A
:10521000F8BD00002DE9F04304468068D94F87B0FF
:105220002268D4E90465E369616E304316681D4362
:105230002843D54B002501433E400E4316602068AD
:10524000E268416821F44051114341602268A1693C
:105250009A4201D0206A01439668DFF830C3CC4FF0
:10526000CC4806EA0C060E4396602168666ACA6A54
:1052700022F00F023243CA622268BA420ED100689D
:1052800000F03800182873D047DCB8B3082879D06C
:1052900010286FD178E028287ED17BE0BE498A4271
:1052A00009D1006800F00700062875D2DFE800F099
:1052B000546A6C6E7072B9498A4209D1006800F074
:1052C0000700062868D2DFE800F0475D5F6163658C
:1052D000B3498A4209D1006800F0070006285BD272
:1052E000DFE800F03A5052545658AE498A420BD18A
:1052F000006800F0070006284ED200E010E0DFE86A
:1053000000F02B4143454749A7498A420AD100682A
:1053100000F03800182839D0B7DD2028BBD13CE098
:1053200001203AE0A1498A4209D1006800F0070053
:10533000062831D2DFE800F01026282A2C2E9C49BE
:105340008A420BD1006800F00700062824D2DFE86B
:1053500000F003191B1D1F2100201EE09A421BD1E3
:105360008C48001D006800F00700062814D202E0F7
:105370000CE007E010E0DFE800F0030507090B0D83
:1053800002200AE0042008E0082006E0102004E0E3
:10539000202002E0402000E080208649DFF81882CB
:1053A0009A42864A4FF400434FEA21174FF0000615
:1053B0004ED110281AD006DC022809D004280BD0C0
:1053C00008287DD10DE020283ED0402878D13DE04E
:1053D000FDF796FC014610E06846FDF7A3FC019935
:1053E0000BE003A8FDF740FD049906E01068800675
:1053F00004D51068C0F3C100C140C1B3606A6768DA
:1054000038F8102007EB4703B1FBF2F0834257D87E
:10541000B0EB073F54D8002308461946FBF758F86D
:105420000902020241EA106170084FEA37001018C1
:105430003A4671410023FBF74BF8614AA0F54071F1
:1054400091423DD821684CE03946D7E71946D5E767
:10545000D4F81CC04FF6EF799C4552D108281AD0D9
:1054600006DC60B101280DD0042829D10EE039E016
:10547000102815D0202840D040287CD13FE0FEF7EE
:1054800071FB01E0FEF780FB014610E06846FDF786
:1054900049FC01990BE003A8FDF7E6FC049906E03E
:1054A0001068800604D51068C0F3C100C140C9B1BE
:1054B000636A606838F81330B1FBF3F1490000E02B
:1054C00059E001EB5001B1FBF0F080B2A0F1100106
:1054D000494550D84FF6F0732168C0F34202184096
:1054E0001043C8600120A4F86A00A4F868002846A8
:1054F000E666266707B0BDE8F0833946D8E7194667
:10550000D6E7082819D005DC58B101280CD00428AA
:1055100031D10DE0102815D020282ED040282AD1D6
:105520002DE0FEF71FFB01E0FEF72EFB014610E029
:105530006846FDF7F7FB01990BE003A8FDF794FC23
:10554000049906E01068800605D51068C0F3C10014
:10555000C1400029C6D0636A606838F81330B1FBD7
:10556000F3F101EB5001B1FBF0F080B2A0F11001BA
:1055700049457FF667AF0125B4E73946EBE71946A1
:10558000E9E70000F369FFCF000C0058FFF4FF11BA
:1055900000100140544402580044004000480040BC
:1055A000004C0040005000400014014000780040D2
:1055B000007C00400090D003F84E010800440258DF
:1055C000FFFC0F002DE9F0479A4617460E460446A9
:1055D000089D4FF000094FF0200839E0681C37D0D3
:1055E000FDF77EF9A0EB0A00A84222D80DB320688F
:1055F000016849072CD5C069C043000528D4236839
:105600004FF40061196221680B6823F4D0730B60BA
:1056100021688B6823F001038B60C4F88080C4F894
:105620008480C4F8888000BF032084F87C90BDE8A3
:10563000F08721680B6823F4D0730B6021688B68B6
:1056400023F001038B60C4F88080C4F88480EBE70A
:105650002068C06936EA000004D00020B842BDD0FE
:105660000020E4E70120F9E770B5044606990A9E98
:10567000049D01290D9816D0E06840F04000E060DC
:10568000204600F02DF8A16B26B321F48031A163F0
:10569000012D07D1A16841F00601A160A16841F088
:1056A0002001A16070BDA26B01280C4922F480305A
:1056B000A063E06800EA0100E060E06820F44010C8
:1056C000E06003D1E06840F48010E060204600F024
:1056D00007F8DDE741F48031D9E70000BFFFBDFFE7
:1056E0000C49012202E0521C8A420BD80369002BAC
:1056F000F9DA0369012243F00103036104E0521C5B
:105700008A4201D9032070470369DB07F7D10020E3
:1057100070470000400D030010B5D0F8041841F0A8
:105720000201C0F804180320FCF7C4F9002010BDE2
:105730002DE9F04F0E4604460021DDF824B00D4659
:10574000109F0846DDF82C2004EB800CCCF80411E7
:10575000401C0F28F8D32046AFB1806B40F4001CEA
:10576000C4F838C088460846C4F8000ED4F80008CB
:10577000012A2146C4F800081BD00846D1F80018B9
:1057800041F003011BE0D0F8040840F0020CC4F81B
:1057900004C8A06B20F4001CC4F838C0206840F096
:1057A000400CC4F800C0206840F0800CC4F800C071
:1057B000D8E70846D1F800180BB141F00101C0F854
:1057C0000018102100F086F800B10125204600F0F5
:1057D00071F800B1012540464FF000694FF67F3364
:1057E0004FF0904AC4F81088C4F81488C4F81C8894
:1057F000002114E004EB4112D2F800C9BCF1000F03
:1058000006DA11B1C2F800A904E0C4F8009901E079
:10581000C2F80009C2F81009C2F80839491C8E42C2
:10582000E8D8002115E000BF04EB4112D2F800CB0C
:10583000BCF1000F06DA11B1C2F800AB04E0C4F805
:10584000009B01E0C2F8000BC2F8100BC2F8083B45
:10585000491C8E42E8D8D4F81038BBF1000F6FF025
:10586000804223F48073C4F81038A061626103D1D0
:10587000A06940F01000A061A069094A0C9940EAB3
:105880000200A06119B1A06940F00800A061012FD9
:1058900003D1A06903490843A0612846BDE8F08F01
:1058A00000383C8004000040816821F001018160E3
:1058B00000207047064A102101610021491C9142D5
:1058C00001D9032070470369DB06F7D40020704735
:1058D000400D03002023074A43EA8113036100219E
:1058E000491C914201D90320704703699B06F7D4F4
:1058F00000207047400D030010B5C268012922F056
:10590000C042C26002D029B1012010BDC16841F07F
:10591000005102E0C16841F08041C1603220FCF7D3
:10592000C9F8002010BDFEE7090700284FEA116101
:1059300004DB00F1E02080F80014704700F00F0055
:1059400000F1E02080F8141D70476FF4004140180A
:1059500004D0012803D0022801D008147047002089
:1059600070476FF40041401800D0002070476FF47A
:105970000041401805D0012802D0022801D00020A3
:10598000704701207047000070B504004FF0FF35EC
:1059900011D020783A280ED10CA12046FAF79EFFAC
:1059A00058B10CA12046FAF799FF48B10BA1204647
:1059B000FAF794FF38B1284670BD48F2010070BD77
:1059C00048F2020070BD48F2030070BD3A535444DF
:1059D000494E00003A5354444F5554003A535444EE
:1059E000455252006FF400421114084670471346A6
:1059F0006FF4004210B50C461114801803D0012832
:105A000003D0022808D0084610BD63B114F8010B7A
:105A1000FEF7F0FD5B1EF8E72BB114F8010BFEF763
:105A2000E9FD5B1EF8E7002010BDFEF7E3BD0000B6
:105A300070B50C460546880706D009A34FF4B67228
:105A400013A11BA0FAF7BCFD07F0E2F8A9680968EA
:105A50002160A9680C60BDE8704007F001B9000042
:105A60002E2E2F4D6964646C6577617265732F54B7
:105A7000686972645F50617274792F4C7749502F56
:105A80007372632F636F72652F6D656D702E630087
:105A90006D656D705F667265653A206D656D20702D
:105AA000726F7065726C7920616C69676E656400F5
:105AB000417373657274696F6E20222573222066AC
:105AC00061696C6564206174206C696E6520256471
:105AD00020696E2025730A0070B5044607F098F817
